{
  "contractName": "Dex",
  "abi": [
    {
      "inputs": [],
      "stateMutability": "nonpayable",
      "type": "constructor"
    },
    {
      "anonymous": false,
      "inputs": [
        {
          "indexed": false,
          "internalType": "uint256",
          "name": "tradeId",
          "type": "uint256"
        },
        {
          "indexed": false,
          "internalType": "uint256",
          "name": "orderId",
          "type": "uint256"
        },
        {
          "indexed": true,
          "internalType": "bytes32",
          "name": "ticker",
          "type": "bytes32"
        },
        {
          "indexed": true,
          "internalType": "address",
          "name": "trader1",
          "type": "address"
        },
        {
          "indexed": true,
          "internalType": "address",
          "name": "trader2",
          "type": "address"
        },
        {
          "indexed": false,
          "internalType": "uint256",
          "name": "amount",
          "type": "uint256"
        },
        {
          "indexed": false,
          "internalType": "uint256",
          "name": "price",
          "type": "uint256"
        },
        {
          "indexed": false,
          "internalType": "uint256",
          "name": "date",
          "type": "uint256"
        }
      ],
      "name": "NewTrade",
      "type": "event"
    },
    {
      "inputs": [],
      "name": "admin",
      "outputs": [
        {
          "internalType": "address",
          "name": "",
          "type": "address"
        }
      ],
      "stateMutability": "view",
      "type": "function",
      "constant": true
    },
    {
      "inputs": [],
      "name": "nextOrderId",
      "outputs": [
        {
          "internalType": "uint256",
          "name": "",
          "type": "uint256"
        }
      ],
      "stateMutability": "view",
      "type": "function",
      "constant": true
    },
    {
      "inputs": [],
      "name": "nextTradeId",
      "outputs": [
        {
          "internalType": "uint256",
          "name": "",
          "type": "uint256"
        }
      ],
      "stateMutability": "view",
      "type": "function",
      "constant": true
    },
    {
      "inputs": [
        {
          "internalType": "bytes32",
          "name": "",
          "type": "bytes32"
        },
        {
          "internalType": "uint256",
          "name": "",
          "type": "uint256"
        },
        {
          "internalType": "uint256",
          "name": "",
          "type": "uint256"
        }
      ],
      "name": "orderBook",
      "outputs": [
        {
          "internalType": "uint256",
          "name": "id",
          "type": "uint256"
        },
        {
          "internalType": "address",
          "name": "trader",
          "type": "address"
        },
        {
          "internalType": "enum Dex.Side",
          "name": "side",
          "type": "uint8"
        },
        {
          "internalType": "bytes32",
          "name": "ticker",
          "type": "bytes32"
        },
        {
          "internalType": "uint256",
          "name": "amount",
          "type": "uint256"
        },
        {
          "internalType": "uint256",
          "name": "filled",
          "type": "uint256"
        },
        {
          "internalType": "uint256",
          "name": "price",
          "type": "uint256"
        },
        {
          "internalType": "uint256",
          "name": "date",
          "type": "uint256"
        }
      ],
      "stateMutability": "view",
      "type": "function",
      "constant": true
    },
    {
      "inputs": [
        {
          "internalType": "uint256",
          "name": "",
          "type": "uint256"
        }
      ],
      "name": "tokenList",
      "outputs": [
        {
          "internalType": "bytes32",
          "name": "",
          "type": "bytes32"
        }
      ],
      "stateMutability": "view",
      "type": "function",
      "constant": true
    },
    {
      "inputs": [
        {
          "internalType": "bytes32",
          "name": "",
          "type": "bytes32"
        }
      ],
      "name": "tokens",
      "outputs": [
        {
          "internalType": "bytes32",
          "name": "ticker",
          "type": "bytes32"
        },
        {
          "internalType": "address",
          "name": "tokenAddress",
          "type": "address"
        }
      ],
      "stateMutability": "view",
      "type": "function",
      "constant": true
    },
    {
      "inputs": [
        {
          "internalType": "address",
          "name": "",
          "type": "address"
        },
        {
          "internalType": "bytes32",
          "name": "",
          "type": "bytes32"
        }
      ],
      "name": "traderBalances",
      "outputs": [
        {
          "internalType": "uint256",
          "name": "",
          "type": "uint256"
        }
      ],
      "stateMutability": "view",
      "type": "function",
      "constant": true
    },
    {
      "inputs": [
        {
          "internalType": "bytes32",
          "name": "ticker",
          "type": "bytes32"
        },
        {
          "internalType": "enum Dex.Side",
          "name": "side",
          "type": "uint8"
        }
      ],
      "name": "getOrders",
      "outputs": [
        {
          "components": [
            {
              "internalType": "uint256",
              "name": "id",
              "type": "uint256"
            },
            {
              "internalType": "address",
              "name": "trader",
              "type": "address"
            },
            {
              "internalType": "enum Dex.Side",
              "name": "side",
              "type": "uint8"
            },
            {
              "internalType": "bytes32",
              "name": "ticker",
              "type": "bytes32"
            },
            {
              "internalType": "uint256",
              "name": "amount",
              "type": "uint256"
            },
            {
              "internalType": "uint256",
              "name": "filled",
              "type": "uint256"
            },
            {
              "internalType": "uint256",
              "name": "price",
              "type": "uint256"
            },
            {
              "internalType": "uint256",
              "name": "date",
              "type": "uint256"
            }
          ],
          "internalType": "struct Dex.Order[]",
          "name": "",
          "type": "tuple[]"
        }
      ],
      "stateMutability": "view",
      "type": "function",
      "constant": true
    },
    {
      "inputs": [],
      "name": "getTokens",
      "outputs": [
        {
          "components": [
            {
              "internalType": "bytes32",
              "name": "ticker",
              "type": "bytes32"
            },
            {
              "internalType": "address",
              "name": "tokenAddress",
              "type": "address"
            }
          ],
          "internalType": "struct Dex.Token[]",
          "name": "",
          "type": "tuple[]"
        }
      ],
      "stateMutability": "view",
      "type": "function",
      "constant": true
    },
    {
      "inputs": [
        {
          "internalType": "bytes32",
          "name": "ticker",
          "type": "bytes32"
        },
        {
          "internalType": "address",
          "name": "tokenAddress",
          "type": "address"
        }
      ],
      "name": "addToken",
      "outputs": [],
      "stateMutability": "nonpayable",
      "type": "function"
    },
    {
      "inputs": [
        {
          "internalType": "uint256",
          "name": "amount",
          "type": "uint256"
        },
        {
          "internalType": "bytes32",
          "name": "ticker",
          "type": "bytes32"
        }
      ],
      "name": "deposit",
      "outputs": [],
      "stateMutability": "nonpayable",
      "type": "function"
    },
    {
      "inputs": [
        {
          "internalType": "uint256",
          "name": "amount",
          "type": "uint256"
        },
        {
          "internalType": "bytes32",
          "name": "ticker",
          "type": "bytes32"
        }
      ],
      "name": "withdraw",
      "outputs": [],
      "stateMutability": "nonpayable",
      "type": "function"
    },
    {
      "inputs": [
        {
          "internalType": "bytes32",
          "name": "ticker",
          "type": "bytes32"
        },
        {
          "internalType": "uint256",
          "name": "amount",
          "type": "uint256"
        },
        {
          "internalType": "uint256",
          "name": "price",
          "type": "uint256"
        },
        {
          "internalType": "enum Dex.Side",
          "name": "side",
          "type": "uint8"
        }
      ],
      "name": "createLimitOrder",
      "outputs": [],
      "stateMutability": "nonpayable",
      "type": "function"
    },
    {
      "inputs": [
        {
          "internalType": "bytes32",
          "name": "ticker",
          "type": "bytes32"
        },
        {
          "internalType": "uint256",
          "name": "amount",
          "type": "uint256"
        },
        {
          "internalType": "enum Dex.Side",
          "name": "side",
          "type": "uint8"
        }
      ],
      "name": "createMarketOrder",
      "outputs": [],
      "stateMutability": "nonpayable",
      "type": "function"
    }
  ],
  "bytecode": "0x608060405234801561001057600080fd5b5033600460006101000a81548173ffffffffffffffffffffffffffffffffffffffff021916908373ffffffffffffffffffffffffffffffffffffffff160217905550613816806100616000396000f3fe608060405234801561001057600080fd5b50600436106100ea5760003560e01c80639776aacf1161008c578063aa6ca80811610066578063aa6ca80814610277578063c9630cb014610295578063d9c0c950146102b1578063f851a440146102cd576100ea565b80639776aacf1461020f5780639ead72221461022b578063a8d2021a1461025b576100ea565b806372ce957e116100c857806372ce957e146101745780637f2c6246146101a4578063813ad083146101c0578063904194a3146101de576100ea565b80630bb431b6146100ef5780632a58b3301461012657806346e9658b14610144575b600080fd5b61010960048036038101906101049190612d35565b6102eb565b60405161011d9897969594939291906133e0565b60405180910390f35b61012e61038a565b60405161013b91906133c5565b60405180910390f35b61015e60048036038101906101599190612caa565b610390565b60405161016b919061327d565b60405180910390f35b61018e60048036038101906101899190612be0565b610566565b60405161019b91906133c5565b60405180910390f35b6101be60048036038101906101b99190612ce6565b61058b565b005b6101c861176d565b6040516101d591906133c5565b60405180910390f35b6101f860048036038101906101f39190612c45565b611773565b6040516102069291906132dc565b60405180910390f35b61022960048036038101906102249190612c6e565b6117b7565b005b61024560048036038101906102409190612de7565b611905565b60405161025291906132c1565b60405180910390f35b61027560048036038101906102709190612e10565b611929565b005b61027f611b91565b60405161028c919061329f565b60405180910390f35b6102af60048036038101906102aa9190612e10565b611d82565b005b6102cb60048036038101906102c69190612d84565b611f59565b005b6102d5612b1e565b6040516102e29190613202565b60405180910390f35b6003602052826000526040600020602052816000526040600020818154811061031357600080fd5b906000526020600020906007020160009250925050508060000154908060010160009054906101000a900473ffffffffffffffffffffffffffffffffffffffff16908060010160149054906101000a900460ff16908060020154908060030154908060040154908060050154908060060154905088565b60065481565b60606003600084815260200190815260200160002060008360018111156103e0577f4e487b7100000000000000000000000000000000000000000000000000000000600052602160045260246000fd5b8152602001908152602001600020805480602002602001604051908101604052809291908181526020016000905b8282101561055a578382906000526020600020906007020160405180610100016040529081600082015481526020016001820160009054906101000a900473ffffffffffffffffffffffffffffffffffffffff1673ffffffffffffffffffffffffffffffffffffffff1673ffffffffffffffffffffffffffffffffffffffff1681526020016001820160149054906101000a900460ff1660018111156104dd577f4e487b7100000000000000000000000000000000000000000000000000000000600052602160045260246000fd5b6001811115610515577f4e487b7100000000000000000000000000000000000000000000000000000000600052602160045260246000fd5b8152602001600282015481526020016003820154815260200160048201548152602001600582015481526020016006820154815250508152602001906001019061040e565b50505050905092915050565b6002602052816000526040600020602052806000526040600020600091509150505481565b82600073ffffffffffffffffffffffffffffffffffffffff1660008083815260200190815260200160002060010160009054906101000a900473ffffffffffffffffffffffffffffffffffffffff1673ffffffffffffffffffffffffffffffffffffffff161415610631576040517f08c379a0000000000000000000000000000000000000000000000000000000008152600401610628906133a5565b60405180910390fd5b837f4441490000000000000000000000000000000000000000000000000000000000811415610695576040517f08c379a000000000000000000000000000000000000000000000000000000000815260040161068c90613345565b60405180910390fd5b6001808111156106ce577f4e487b7100000000000000000000000000000000000000000000000000000000600052602160045260246000fd5b836001811115610707577f4e487b7100000000000000000000000000000000000000000000000000000000600052602160045260246000fd5b14156107a15783600260003373ffffffffffffffffffffffffffffffffffffffff1673ffffffffffffffffffffffffffffffffffffffff16815260200190815260200160002060008781526020019081526020016000205410156107a0576040517f08c379a000000000000000000000000000000000000000000000000000000000815260040161079790613305565b60405180910390fd5b5b60006003600087815260200190815260200160002060008060018111156107f1577f4e487b7100000000000000000000000000000000000000000000000000000000600052602160045260246000fd5b86600181111561082a577f4e487b7100000000000000000000000000000000000000000000000000000000600052602160045260246000fd5b14610836576000610839565b60015b6001811115610871577f4e487b7100000000000000000000000000000000000000000000000000000000600052602160045260246000fd5b815260200190815260200160002090506000808690505b82805490508210801561089b5750600081115b156114105760008383815481106108db577f4e487b7100000000000000000000000000000000000000000000000000000000600052603260045260246000fd5b906000526020600020906007020160040154848481548110610926577f4e487b7100000000000000000000000000000000000000000000000000000000600052603260045260246000fd5b90600052602060002090600702016003015461094291906135e4565b905060008183116109535782610955565b815b9050808361096391906135e4565b92508085858154811061099f577f4e487b7100000000000000000000000000000000000000000000000000000000600052603260045260246000fd5b906000526020600020906007020160040160008282546109bf9190613534565b925050819055503373ffffffffffffffffffffffffffffffffffffffff16858581548110610a16577f4e487b7100000000000000000000000000000000000000000000000000000000600052603260045260246000fd5b906000526020600020906007020160010160009054906101000a900473ffffffffffffffffffffffffffffffffffffffff1673ffffffffffffffffffffffffffffffffffffffff168b7fdb0c486e680ba8026643e6a85f8d157b5e7bcd4b32b54d564542570a9eb20416600554898981548110610abc577f4e487b7100000000000000000000000000000000000000000000000000000000600052603260045260246000fd5b906000526020600020906007020160000154868b8b81548110610b08577f4e487b7100000000000000000000000000000000000000000000000000000000600052603260045260246000fd5b90600052602060002090600702016005015442604051610b2c95949392919061345e565b60405180910390a4600180811115610b6d577f4e487b7100000000000000000000000000000000000000000000000000000000600052602160045260246000fd5b886001811115610ba6577f4e487b7100000000000000000000000000000000000000000000000000000000600052602160045260246000fd5b1415610f075780600260003373ffffffffffffffffffffffffffffffffffffffff1673ffffffffffffffffffffffffffffffffffffffff16815260200190815260200160002060008c81526020019081526020016000206000828254610c0c91906135e4565b92505081905550848481548110610c4c577f4e487b7100000000000000000000000000000000000000000000000000000000600052603260045260246000fd5b90600052602060002090600702016005015481610c69919061358a565b600260003373ffffffffffffffffffffffffffffffffffffffff1673ffffffffffffffffffffffffffffffffffffffff16815260200190815260200160002060007f444149000000000000000000000000000000000000000000000000000000000081526020019081526020016000206000828254610ce89190613534565b925050819055508060026000878781548110610d2d577f4e487b7100000000000000000000000000000000000000000000000000000000600052603260045260246000fd5b906000526020600020906007020160010160009054906101000a900473ffffffffffffffffffffffffffffffffffffffff1673ffffffffffffffffffffffffffffffffffffffff1673ffffffffffffffffffffffffffffffffffffffff16815260200190815260200160002060008c81526020019081526020016000206000828254610db99190613534565b92505081905550848481548110610df9577f4e487b7100000000000000000000000000000000000000000000000000000000600052603260045260246000fd5b90600052602060002090600702016005015481610e16919061358a565b60026000878781548110610e53577f4e487b7100000000000000000000000000000000000000000000000000000000600052603260045260246000fd5b906000526020600020906007020160010160009054906101000a900473ffffffffffffffffffffffffffffffffffffffff1673ffffffffffffffffffffffffffffffffffffffff1673ffffffffffffffffffffffffffffffffffffffff16815260200190815260200160002060007f444149000000000000000000000000000000000000000000000000000000000081526020019081526020016000206000828254610eff91906135e4565b925050819055505b60006001811115610f41577f4e487b7100000000000000000000000000000000000000000000000000000000600052602160045260246000fd5b886001811115610f7a577f4e487b7100000000000000000000000000000000000000000000000000000000600052602160045260246000fd5b14156113e357848481548110610fb9577f4e487b7100000000000000000000000000000000000000000000000000000000600052603260045260246000fd5b90600052602060002090600702016005015481610fd6919061358a565b600260003373ffffffffffffffffffffffffffffffffffffffff1673ffffffffffffffffffffffffffffffffffffffff16815260200190815260200160002060007f44414900000000000000000000000000000000000000000000000000000000008152602001908152602001600020541015611088576040517f08c379a000000000000000000000000000000000000000000000000000000000815260040161107f90613385565b60405180910390fd5b80600260003373ffffffffffffffffffffffffffffffffffffffff1673ffffffffffffffffffffffffffffffffffffffff16815260200190815260200160002060008c815260200190815260200160002060008282546110e89190613534565b92505081905550848481548110611128577f4e487b7100000000000000000000000000000000000000000000000000000000600052603260045260246000fd5b90600052602060002090600702016005015481611145919061358a565b600260003373ffffffffffffffffffffffffffffffffffffffff1673ffffffffffffffffffffffffffffffffffffffff16815260200190815260200160002060007f4441490000000000000000000000000000000000000000000000000000000000815260200190815260200160002060008282546111c491906135e4565b925050819055508060026000878781548110611209577f4e487b7100000000000000000000000000000000000000000000000000000000600052603260045260246000fd5b906000526020600020906007020160010160009054906101000a900473ffffffffffffffffffffffffffffffffffffffff1673ffffffffffffffffffffffffffffffffffffffff1673ffffffffffffffffffffffffffffffffffffffff16815260200190815260200160002060008c8152602001908152602001600020600082825461129591906135e4565b925050819055508484815481106112d5577f4e487b7100000000000000000000000000000000000000000000000000000000600052603260045260246000fd5b906000526020600020906007020160050154816112f2919061358a565b6002600087878154811061132f577f4e487b7100000000000000000000000000000000000000000000000000000000600052603260045260246000fd5b906000526020600020906007020160010160009054906101000a900473ffffffffffffffffffffffffffffffffffffffff1673ffffffffffffffffffffffffffffffffffffffff1673ffffffffffffffffffffffffffffffffffffffff16815260200190815260200160002060007f4441490000000000000000000000000000000000000000000000000000000000815260200190815260200160002060008282546113db9190613534565b925050819055505b600560008154809291906113f6906136b9565b91905055508380611406906136b9565b9450505050610888565b600091505b8280549050821080156114bb575082828154811061145c577f4e487b7100000000000000000000000000000000000000000000000000000000600052603260045260246000fd5b9060005260206000209060070201600301548383815481106114a7577f4e487b7100000000000000000000000000000000000000000000000000000000600052603260045260246000fd5b906000526020600020906007020160040154145b156117635760008290505b600184805490506114d791906135e4565b81101561169457836001826114ec9190613534565b81548110611523577f4e487b7100000000000000000000000000000000000000000000000000000000600052603260045260246000fd5b906000526020600020906007020184828154811061156a577f4e487b7100000000000000000000000000000000000000000000000000000000600052603260045260246000fd5b9060005260206000209060070201600082015481600001556001820160009054906101000a900473ffffffffffffffffffffffffffffffffffffffff168160010160006101000a81548173ffffffffffffffffffffffffffffffffffffffff021916908373ffffffffffffffffffffffffffffffffffffffff1602179055506001820160149054906101000a900460ff168160010160146101000a81548160ff02191690836001811115611647577f4e487b7100000000000000000000000000000000000000000000000000000000600052602160045260246000fd5b02179055506002820154816002015560038201548160030155600482015481600401556005820154816005015560068201548160060155905050808061168c906136b9565b9150506114c6565b50828054806116cc577f4e487b7100000000000000000000000000000000000000000000000000000000600052603160045260246000fd5b60019003818190600052602060002090600702016000808201600090556001820160006101000a81549073ffffffffffffffffffffffffffffffffffffffff02191690556001820160146101000a81549060ff02191690556002820160009055600382016000905560048201600090556005820160009055600682016000905550509055818061175b906136b9565b925050611415565b5050505050505050565b60055481565b60006020528060005260406000206000915090508060000154908060010160009054906101000a900473ffffffffffffffffffffffffffffffffffffffff16905082565b600460009054906101000a900473ffffffffffffffffffffffffffffffffffffffff1673ffffffffffffffffffffffffffffffffffffffff163373ffffffffffffffffffffffffffffffffffffffff1614611847576040517f08c379a000000000000000000000000000000000000000000000000000000000815260040161183e90613325565b60405180910390fd5b60405180604001604052808381526020018273ffffffffffffffffffffffffffffffffffffffff168152506000808481526020019081526020016000206000820151816000015560208201518160010160006101000a81548173ffffffffffffffffffffffffffffffffffffffff021916908373ffffffffffffffffffffffffffffffffffffffff16021790555090505060018290806001815401808255809150506001900390600052602060002001600090919091909150555050565b6001818154811061191557600080fd5b906000526020600020016000915090505481565b80600073ffffffffffffffffffffffffffffffffffffffff1660008083815260200190815260200160002060010160009054906101000a900473ffffffffffffffffffffffffffffffffffffffff1673ffffffffffffffffffffffffffffffffffffffff1614156119cf576040517f08c379a00000000000000000000000000000000000000000000000000000000081526004016119c6906133a5565b60405180910390fd5b82600260003373ffffffffffffffffffffffffffffffffffffffff1673ffffffffffffffffffffffffffffffffffffffff1681526020019081526020016000206000848152602001908152602001600020541015611a62576040517f08c379a0000000000000000000000000000000000000000000000000000000008152600401611a5990613305565b60405180910390fd5b82600260003373ffffffffffffffffffffffffffffffffffffffff1673ffffffffffffffffffffffffffffffffffffffff16815260200190815260200160002060008481526020019081526020016000206000828254611ac291906135e4565b9250508190555060008083815260200190815260200160002060010160009054906101000a900473ffffffffffffffffffffffffffffffffffffffff1673ffffffffffffffffffffffffffffffffffffffff1663a9059cbb33856040518363ffffffff1660e01b8152600401611b39929190613254565b602060405180830381600087803b158015611b5357600080fd5b505af1158015611b67573d6000803e3d6000fd5b505050506040513d601f19601f82011682018060405250810190611b8b9190612c1c565b50505050565b6060600060018054905067ffffffffffffffff811115611bda577f4e487b7100000000000000000000000000000000000000000000000000000000600052604160045260246000fd5b604051908082528060200260200182016040528015611c1357816020015b611c00612b44565b815260200190600190039081611bf85790505b50905060005b600180549050811015611d7a57604051806040016040528060008060018581548110611c6e577f4e487b7100000000000000000000000000000000000000000000000000000000600052603260045260246000fd5b9060005260206000200154815260200190815260200160002060000154815260200160008060018581548110611ccd577f4e487b7100000000000000000000000000000000000000000000000000000000600052603260045260246000fd5b9060005260206000200154815260200190815260200160002060010160009054906101000a900473ffffffffffffffffffffffffffffffffffffffff1673ffffffffffffffffffffffffffffffffffffffff16815250828281518110611d5c577f4e487b7100000000000000000000000000000000000000000000000000000000600052603260045260246000fd5b60200260200101819052508080611d72906136b9565b915050611c19565b508091505090565b80600073ffffffffffffffffffffffffffffffffffffffff1660008083815260200190815260200160002060010160009054906101000a900473ffffffffffffffffffffffffffffffffffffffff1673ffffffffffffffffffffffffffffffffffffffff161415611e28576040517f08c379a0000000000000000000000000000000000000000000000000000000008152600401611e1f906133a5565b60405180910390fd5b60008083815260200190815260200160002060010160009054906101000a900473ffffffffffffffffffffffffffffffffffffffff1673ffffffffffffffffffffffffffffffffffffffff166323b872dd3330866040518463ffffffff1660e01b8152600401611e9a9392919061321d565b602060405180830381600087803b158015611eb457600080fd5b505af1158015611ec8573d6000803e3d6000fd5b505050506040513d601f19601f82011682018060405250810190611eec9190612c1c565b5082600260003373ffffffffffffffffffffffffffffffffffffffff1673ffffffffffffffffffffffffffffffffffffffff16815260200190815260200160002060008481526020019081526020016000206000828254611f4d9190613534565b92505081905550505050565b83600073ffffffffffffffffffffffffffffffffffffffff1660008083815260200190815260200160002060010160009054906101000a900473ffffffffffffffffffffffffffffffffffffffff1673ffffffffffffffffffffffffffffffffffffffff161415611fff576040517f08c379a0000000000000000000000000000000000000000000000000000000008152600401611ff6906133a5565b60405180910390fd5b847f4441490000000000000000000000000000000000000000000000000000000000811415612063576040517f08c379a000000000000000000000000000000000000000000000000000000000815260040161205a90613345565b60405180910390fd5b60018081111561209c577f4e487b7100000000000000000000000000000000000000000000000000000000600052602160045260246000fd5b8360018111156120d5577f4e487b7100000000000000000000000000000000000000000000000000000000600052602160045260246000fd5b14156121735784600260003373ffffffffffffffffffffffffffffffffffffffff1673ffffffffffffffffffffffffffffffffffffffff168152602001908152602001600020600088815260200190815260200160002054101561216e576040517f08c379a000000000000000000000000000000000000000000000000000000000815260040161216590613365565b60405180910390fd5b612232565b838561217f919061358a565b600260003373ffffffffffffffffffffffffffffffffffffffff1673ffffffffffffffffffffffffffffffffffffffff16815260200190815260200160002060007f44414900000000000000000000000000000000000000000000000000000000008152602001908152602001600020541015612231576040517f08c379a000000000000000000000000000000000000000000000000000000000815260040161222890613385565b60405180910390fd5b5b6000600360008881526020019081526020016000206000856001811115612282577f4e487b7100000000000000000000000000000000000000000000000000000000600052602160045260246000fd5b815260200190815260200160002090508060405180610100016040528060065481526020013373ffffffffffffffffffffffffffffffffffffffff1681526020018660018111156122fc577f4e487b7100000000000000000000000000000000000000000000000000000000600052602160045260246000fd5b8152602001898152602001888152602001600081526020018781526020014281525090806001815401808255809150506001900390600052602060002090600702016000909190919091506000820151816000015560208201518160010160006101000a81548173ffffffffffffffffffffffffffffffffffffffff021916908373ffffffffffffffffffffffffffffffffffffffff16021790555060408201518160010160146101000a81548160ff021916908360018111156123e9577f4e487b7100000000000000000000000000000000000000000000000000000000600052602160045260246000fd5b0217905550606082015181600201556080820151816003015560a0820151816004015560c0820151816005015560e082015181600601555050600080828054905011612436576000612448565b6001828054905061244791906135e4565b5b90505b6000811115612afc576000600181111561248e577f4e487b7100000000000000000000000000000000000000000000000000000000600052602160045260246000fd5b8560018111156124c7577f4e487b7100000000000000000000000000000000000000000000000000000000600052602160045260246000fd5b1480156125735750818181548110612508577f4e487b7100000000000000000000000000000000000000000000000000000000600052603260045260246000fd5b9060005260206000209060070201600501548260018361252891906135e4565b8154811061255f577f4e487b7100000000000000000000000000000000000000000000000000000000600052603260045260246000fd5b906000526020600020906007020160050154115b1561257d57612afc565b6001808111156125b6577f4e487b7100000000000000000000000000000000000000000000000000000000600052602160045260246000fd5b8560018111156125ef577f4e487b7100000000000000000000000000000000000000000000000000000000600052602160045260246000fd5b14801561269b5750818181548110612630577f4e487b7100000000000000000000000000000000000000000000000000000000600052603260045260246000fd5b9060005260206000209060070201600501548260018361265091906135e4565b81548110612687577f4e487b7100000000000000000000000000000000000000000000000000000000600052603260045260246000fd5b906000526020600020906007020160050154105b156126a557612afc565b6000826001836126b591906135e4565b815481106126ec577f4e487b7100000000000000000000000000000000000000000000000000000000600052603260045260246000fd5b906000526020600020906007020160405180610100016040529081600082015481526020016001820160009054906101000a900473ffffffffffffffffffffffffffffffffffffffff1673ffffffffffffffffffffffffffffffffffffffff1673ffffffffffffffffffffffffffffffffffffffff1681526020016001820160149054906101000a900460ff1660018111156127b1577f4e487b7100000000000000000000000000000000000000000000000000000000600052602160045260246000fd5b60018111156127e9577f4e487b7100000000000000000000000000000000000000000000000000000000600052602160045260246000fd5b815260200160028201548152602001600382015481526020016004820154815260200160058201548152602001600682015481525050905082828154811061285a577f4e487b7100000000000000000000000000000000000000000000000000000000600052603260045260246000fd5b90600052602060002090600702018360018461287691906135e4565b815481106128ad577f4e487b7100000000000000000000000000000000000000000000000000000000600052603260045260246000fd5b9060005260206000209060070201600082015481600001556001820160009054906101000a900473ffffffffffffffffffffffffffffffffffffffff168160010160006101000a81548173ffffffffffffffffffffffffffffffffffffffff021916908373ffffffffffffffffffffffffffffffffffffffff1602179055506001820160149054906101000a900460ff168160010160146101000a81548160ff0219169083600181111561298a577f4e487b7100000000000000000000000000000000000000000000000000000000600052602160045260246000fd5b02179055506002820154816002015560038201548160030155600482015481600401556005820154816005015560068201548160060155905050808383815481106129fe577f4e487b7100000000000000000000000000000000000000000000000000000000600052603260045260246000fd5b90600052602060002090600702016000820151816000015560208201518160010160006101000a81548173ffffffffffffffffffffffffffffffffffffffff021916908373ffffffffffffffffffffffffffffffffffffffff16021790555060408201518160010160146101000a81548160ff02191690836001811115612aae577f4e487b7100000000000000000000000000000000000000000000000000000000600052602160045260246000fd5b0217905550606082015181600201556080820151816003015560a0820151816004015560c0820151816005015560e082015181600601559050508180612af39061368f565b9250505061244b565b60066000815480929190612b0f906136b9565b91905055505050505050505050565b600460009054906101000a900473ffffffffffffffffffffffffffffffffffffffff1681565b604051806040016040528060008019168152602001600073ffffffffffffffffffffffffffffffffffffffff1681525090565b600081359050612b8681613774565b92915050565b600081519050612b9b8161378b565b92915050565b600081359050612bb0816137a2565b92915050565b600081359050612bc5816137b9565b92915050565b600081359050612bda816137c9565b92915050565b60008060408385031215612bf357600080fd5b6000612c0185828601612b77565b9250506020612c1285828601612ba1565b9150509250929050565b600060208284031215612c2e57600080fd5b6000612c3c84828501612b8c565b91505092915050565b600060208284031215612c5757600080fd5b6000612c6584828501612ba1565b91505092915050565b60008060408385031215612c8157600080fd5b6000612c8f85828601612ba1565b9250506020612ca085828601612b77565b9150509250929050565b60008060408385031215612cbd57600080fd5b6000612ccb85828601612ba1565b9250506020612cdc85828601612bb6565b9150509250929050565b600080600060608486031215612cfb57600080fd5b6000612d0986828701612ba1565b9350506020612d1a86828701612bcb565b9250506040612d2b86828701612bb6565b9150509250925092565b600080600060608486031215612d4a57600080fd5b6000612d5886828701612ba1565b9350506020612d6986828701612bcb565b9250506040612d7a86828701612bcb565b9150509250925092565b60008060008060808587031215612d9a57600080fd5b6000612da887828801612ba1565b9450506020612db987828801612bcb565b9350506040612dca87828801612bcb565b9250506060612ddb87828801612bb6565b91505092959194509250565b600060208284031215612df957600080fd5b6000612e0784828501612bcb565b91505092915050565b60008060408385031215612e2357600080fd5b6000612e3185828601612bcb565b9250506020612e4285828601612ba1565b9150509250929050565b6000612e588383613113565b6101008301905092915050565b6000612e7183836131b5565b60408301905092915050565b612e8681613618565b82525050565b612e9581613618565b82525050565b6000612ea6826134d1565b612eb08185613501565b9350612ebb836134b1565b8060005b83811015612eec578151612ed38882612e4c565b9750612ede836134e7565b925050600181019050612ebf565b5085935050505092915050565b6000612f04826134dc565b612f0e8185613512565b9350612f19836134c1565b8060005b83811015612f4a578151612f318882612e65565b9750612f3c836134f4565b925050600181019050612f1d565b5085935050505092915050565b612f6081613636565b82525050565b612f6f81613636565b82525050565b612f7e8161367d565b82525050565b612f8d8161367d565b82525050565b6000612fa0600f83613523565b91507f62616c616e636520746f6f206c6f7700000000000000000000000000000000006000830152602082019050919050565b6000612fe0600a83613523565b91507f6f6e6c792061646d696e000000000000000000000000000000000000000000006000830152602082019050919050565b6000613020601083613523565b91507f63616e6e6f7420747261646520444149000000000000000000000000000000006000830152602082019050919050565b6000613060601583613523565b91507f746f6b656e2062616c616e636520746f6f206c6f7700000000000000000000006000830152602082019050919050565b60006130a0601383613523565b91507f6461692062616c616e636520746f6f206c6f77000000000000000000000000006000830152602082019050919050565b60006130e0601983613523565b91507f7468697320746f6b656e20646f6573206e6f74206578697374000000000000006000830152602082019050919050565b6101008201600082015161312a60008501826131e4565b50602082015161313d6020850182612e7d565b5060408201516131506040850182612f75565b5060608201516131636060850182612f57565b50608082015161317660808501826131e4565b5060a082015161318960a08501826131e4565b5060c082015161319c60c08501826131e4565b5060e08201516131af60e08501826131e4565b50505050565b6040820160008201516131cb6000850182612f57565b5060208201516131de6020850182612e7d565b50505050565b6131ed81613673565b82525050565b6131fc81613673565b82525050565b60006020820190506132176000830184612e8c565b92915050565b60006060820190506132326000830186612e8c565b61323f6020830185612e8c565b61324c60408301846131f3565b949350505050565b60006040820190506132696000830185612e8c565b61327660208301846131f3565b9392505050565b600060208201905081810360008301526132978184612e9b565b905092915050565b600060208201905081810360008301526132b98184612ef9565b905092915050565b60006020820190506132d66000830184612f66565b92915050565b60006040820190506132f16000830185612f66565b6132fe6020830184612e8c565b9392505050565b6000602082019050818103600083015261331e81612f93565b9050919050565b6000602082019050818103600083015261333e81612fd3565b9050919050565b6000602082019050818103600083015261335e81613013565b9050919050565b6000602082019050818103600083015261337e81613053565b9050919050565b6000602082019050818103600083015261339e81613093565b9050919050565b600060208201905081810360008301526133be816130d3565b9050919050565b60006020820190506133da60008301846131f3565b92915050565b6000610100820190506133f6600083018b6131f3565b613403602083018a612e8c565b6134106040830189612f84565b61341d6060830188612f66565b61342a60808301876131f3565b61343760a08301866131f3565b61344460c08301856131f3565b61345160e08301846131f3565b9998505050505050505050565b600060a08201905061347360008301886131f3565b61348060208301876131f3565b61348d60408301866131f3565b61349a60608301856131f3565b6134a760808301846131f3565b9695505050505050565b6000819050602082019050919050565b6000819050602082019050919050565b600081519050919050565b600081519050919050565b6000602082019050919050565b6000602082019050919050565b600082825260208201905092915050565b600082825260208201905092915050565b600082825260208201905092915050565b600061353f82613673565b915061354a83613673565b9250827fffffffffffffffffffffffffffffffffffffffffffffffffffffffffffffffff0382111561357f5761357e613702565b5b828201905092915050565b600061359582613673565b91506135a083613673565b9250817fffffffffffffffffffffffffffffffffffffffffffffffffffffffffffffffff04831182151516156135d9576135d8613702565b5b828202905092915050565b60006135ef82613673565b91506135fa83613673565b92508282101561360d5761360c613702565b5b828203905092915050565b600061362382613653565b9050919050565b60008115159050919050565b6000819050919050565b600081905061364e82613760565b919050565b600073ffffffffffffffffffffffffffffffffffffffff82169050919050565b6000819050919050565b600061368882613640565b9050919050565b600061369a82613673565b915060008214156136ae576136ad613702565b5b600182039050919050565b60006136c482613673565b91507fffffffffffffffffffffffffffffffffffffffffffffffffffffffffffffffff8214156136f7576136f6613702565b5b600182019050919050565b7f4e487b7100000000000000000000000000000000000000000000000000000000600052601160045260246000fd5b7f4e487b7100000000000000000000000000000000000000000000000000000000600052602160045260246000fd5b6002811061377157613770613731565b5b50565b61377d81613618565b811461378857600080fd5b50565b6137948161362a565b811461379f57600080fd5b50565b6137ab81613636565b81146137b657600080fd5b50565b600281106137c657600080fd5b50565b6137d281613673565b81146137dd57600080fd5b5056fea26469706673582212206617e06cf0106369632dce76d5ca640161185a9294719c6aa3ca1a44d6b5024164736f6c63430008000033",
  "immutableReferences": {},
  "source": "// SPDX-License-Identifier: MIT\npragma solidity ^0.8.0;\npragma experimental ABIEncoderV2;\n\nimport '@openzeppelin/contracts/token/ERC20/IERC20.sol';\n\n/**\n    * Dex contract:\n    * 1. Liquidity is provided to DEX and user in migration file\n    * 2. User's can immeadiately create market/limit orders\n    * 3. Happy trading\n    */\n\ncontract Dex {\n\n       \n    enum Side {\n        BUY,\n        SELL\n    }\n\n    struct Token {\n        bytes32 ticker;\n        address tokenAddress;\n    }\n\n    /// @param unique id of order\n    /// @param address of trader associated with trade\n    /// @param BUY/SELL\n    /// @param ticker symbol of token\n    /// @param quantity of token\n    /// @param for limit orders, how much was filled\n    /// @param price of token\n    /// @param date of creation of trade\n    struct Order {\n        uint id;\n        address trader;\n        Side side;\n        bytes32 ticker;\n        uint amount;\n        uint filled;\n        uint price;\n        uint date;\n    }\n\n\n    mapping(bytes32 => Token) public tokens;\n    bytes32[] public tokenList;\n    mapping(address => mapping(bytes32 => uint)) public traderBalances;\n    mapping(bytes32 => mapping(uint => Order[])) public orderBook; // for storing order/time priority e.g BUY = [50, 40, 35, 22]\n\n    address public admin;\n    uint public nextTradeId;\n    uint public nextOrderId;\n    bytes32 constant DAI = bytes32('DAI'); // constants save repeated computation/gas \n\n    event NewTrade(\n        uint tradeId,\n        uint orderId,\n        bytes32 indexed ticker,\n        address indexed trader1,\n        address indexed trader2,\n        uint amount,\n        uint price,\n        uint date\n    );\n\n    constructor() {\n        admin = msg.sender;\n    }\n\n    function getOrders(bytes32 ticker, Side side) external view returns(Order[] memory) {\n        return orderBook[ticker][uint(side)];\n    }\n\n    function getTokens() external view returns(Token[] memory) { // go back to cryptozombies\n        Token[] memory _tokens = new Token[](tokenList.length);\n        for (uint i = 0; i < tokenList.length; i++) {\n            _tokens[i] = Token(\n                tokens[tokenList[i]].ticker,\n                tokens[tokenList[i]].tokenAddress\n            );\n        }\n        return _tokens;\n    }\n     \n    function addToken(bytes32 ticker, address tokenAddress) onlyAdmin() external {\n            tokens[ticker] = Token(ticker, tokenAddress); // register new token: CEL; 0xAvw34rfr... \n            tokenList.push(ticker); // push CEL into list of tokens --> [KSM, DOT, CEL]\n    }\n    \n\n    function deposit(uint amount, bytes32 ticker) external tokenExist(ticker) { // need a pointer to ERC20 token defined by the ticker param\n    // Interface's method - accessing tokenAddress value from tokens mapping/object\n        IERC20(tokens[ticker].tokenAddress).transferFrom(\n            msg.sender, // address of caller\n            address(this), // address of this smart contract/wallet\n            amount\n        );\n        traderBalances[msg.sender][ticker] += amount;\n    }\n\n    function withdraw(uint amount, bytes32 ticker) external tokenExist(ticker) {\n        require(traderBalances[msg.sender][ticker] >= amount, 'balance too low');\n        traderBalances[msg.sender][ticker] -= amount;\n        IERC20(tokens[ticker].tokenAddress).transfer(\n            msg.sender,\n            amount\n        );\n    }\n\n    function createLimitOrder(bytes32 ticker, uint amount, uint price, Side side) \n        external tokenExist(ticker) tokenIsNotDai(ticker) {\n        if(side == Side.SELL) {\n            require(\n                traderBalances[msg.sender][ticker] >= amount,\n                'token balance too low'\n            );\n        } else {\n            require(\n                traderBalances[msg.sender][DAI] >= amount * price,\n                'dai balance too low'\n            );\n        }\n        Order[] storage orders = orderBook[ticker][uint(side)];\n        orders.push(Order(\n            nextOrderId,\n            msg.sender,\n            side,\n            ticker,\n            amount,\n            0,\n            price,\n            block.timestamp\n        ));\n\n        uint i = orders.length > 0 ? orders.length - 1 : 0;\n        while(i > 0) {\n            if(side == Side.BUY && orders[i - 1].price > orders[i].price) {\n                break;\n            }\n            if(side == Side.SELL && orders[i - 1].price < orders[i].price) {\n                break;\n            }\n            Order memory order = orders[i - 1];\n            orders[i - 1] = orders[i];\n            orders[i] = order;\n            i--;\n        }\n        nextOrderId++;\n\n        //bubble sort algortithm\n    }\n\n    function createMarketOrder(bytes32 ticker, uint amount, Side side) \n        external tokenExist(ticker) tokenIsNotDai(ticker) {\n            if(side == Side.SELL) {\n            require(\n                traderBalances[msg.sender][ticker] >= amount,\n                'balance too low'\n            );\n        }\n        // type cast into integer to access key in orderbook \n        Order[] storage orders = orderBook[ticker][uint(side == Side.BUY ? Side.SELL : Side.BUY)];\n        uint i;\n        uint remaining = amount;\n\n        // price matching process: \n        // stop when reaching end of orderbook and when eveything has been matched\n        while(i < orders.length && remaining > 0) {\n            uint availableLiquidity = orders[i].amount - orders[i].filled;\n            uint matched = (remaining > availableLiquidity) ? availableLiquidity : remaining;\n            remaining -= matched;\n            orders[i].filled += matched;\n            emit NewTrade(\n                nextTradeId,\n                orders[i].id,\n                ticker,\n                orders[i].trader,\n                msg.sender,\n                matched, // amount\n                orders[i].price, // price\n                block.timestamp // date\n            );\n            if(side == Side.SELL) {\n                traderBalances[msg.sender][ticker] -= matched;\n                traderBalances[msg.sender][DAI] += matched * orders[i].price;\n                traderBalances[orders[i].trader][ticker] += matched;\n                traderBalances[orders[i].trader][DAI] -= (matched * orders[i].price);\n            }\n            if(side == Side.BUY) {\n                require(\n                    traderBalances[msg.sender][DAI] >= matched * orders[i].price,\n                    'dai balance too low'\n                    );\n                traderBalances[msg.sender][ticker] += matched;\n                traderBalances[msg.sender][DAI] -= matched * orders[i].price;\n                traderBalances[orders[i].trader][ticker] -= matched;\n                traderBalances[orders[i].trader][DAI] += (matched * orders[i].price);\n            }\n            nextTradeId++;\n            i++;\n        }\n\n        i = 0;\n        while(i < orders.length && orders[i].filled == orders[i].amount) {\n            for(uint j = i; j < orders.length - 1; j++) {\n                orders[j] = orders[j + 1];\n            }\n            orders.pop();\n            i++;\n        }\n        \n        \n\n    }\n\n    modifier tokenIsNotDai(bytes32 ticker) {\n        require(ticker != DAI, 'cannot trade DAI');\n        _;\n    }\n\n    modifier tokenExist(bytes32 ticker) {\n        require(\n            tokens[ticker].tokenAddress != address(0),\n            'this token does not exist'\n        );\n        _;\n    }\n\n    modifier onlyAdmin() {\n        require(msg.sender == admin, 'only admin');\n        _;\n    }\n}\n",
  "sourcePath": "/Users/hakeemwhitmore/Documents/MyProject/reactDex/Dex/contracts/Dex.sol",
  "compiler": {
    "name": "solc",
    "version": "0.8.0+commit.c7dfd78e.Emscripten.clang"
  },
  "schemaVersion": "3.4.3",
  "updatedAt": "2022-05-10T07:07:05.655Z",
  "networkType": "ethereum",
  "devdoc": {
    "kind": "dev",
    "methods": {},
    "version": 1
  },
  "userdoc": {
    "kind": "user",
    "methods": {},
    "notice": "Dex contract: 1. Liquidity is provided to DEX and user in migration file 2. User's can immeadiately create market/limit orders 3. Happy trading",
    "version": 1
  }
}